S00F00005072656C6162342E737265638B
S11300000C9434000C9451000C9451000C94510045
S11300100C94F9000C9451000C9451000C94510070
S11300200C9451000C9451000C9451000C94510008
S11300300C9451000C94D9000C9451000C94510070
S11300400C9451000C9451000C9451000C945100E8
S11300500C9451000C9416010C9451000C94510012
S11300600C9451000C94510011241FBECFEFD8E022
S1130070DEBFCDBF11E0A0E0B1E0ECE7F2E002C0EA
S113008005900D92A031B107D9F721E0A0E1B1E0CC
S113009001C01D92A231B207E1F70E949E000C94A8
S11300A03C010C940000ECE7F0E010828081806455
S11300B08083808180628083808186608083EAE798
S11300C0F0E01082808188608083808187608083F3
S11300D08081806880830895E1E8F0E08081856014
S11300E080838BEC93EF9093850080938400EFE6FC
S11300F0F0E08081816080830895F8948FEF8AB95D
S11301001092C1008BB18E7F8BB987B18C7F87B978
S113011088B1836088B984B18E6184B9ECE6F0E07B
S1130120808183608083E8E6F0E080818260808360
S11301300E9453000E946C00789408950E947D00F0
S113014085B1886085B9E0911001EF70F0E0E0506E
S1130150FF4F80818BB98FE79EE30197F1F700C0D1
S1130160000085B1877F85B985B1806185B9E0914B
S11301701001E295EF70F0E0E050FF4F80818BB901
S11301808FE79EE30197F1F700C0000085B18F7EF1
S113019085B985B1846085B9809111018BB98FE7E8
S11301A09EE30197F1F700C0000085B18B7F85B90C
S11301B0C7CF1F920F920FB60F9211248F939F9364
S11301C0EF93FF938BEC93EF9093850080938400DF
S11301D086B3816086BBEAE7F0E080818064808337
S11301E0FF91EF919F918F910F900FBE0F901F90F1
S11301F018951F920F920FB60F9211248F9386B108
S1130200813031F4809111018F5F8093110108C016
S113021086B1823029F480911101815080931101BB
S11302208F910F900FBE0F901F9018951F920F92F1
S11302300FB60F9211248F939F93EF93FF938091A6
S113024079008093100190911101981720F485B1E1
S1130250826085B903C085B18D7F85B9EAE7F0E096
S1130260808180618083FF91EF919F918F910F90A6
S10F02700FBE0F901F901895F894FFCF5C
S113027C3F065B4F666D7D077F67777C395E7971CE
S9030000FC
